{
  "_format": "hh-sol-artifact-1",
  "contractName": "ReputationMirror",
  "sourceName": "contracts/Sepolia/ReputationMirror.sol",
  "abi": [
    {
      "inputs": [
        {
          "internalType": "address",
          "name": "_router",
          "type": "address"
        },
        {
          "internalType": "address",
          "name": "_link",
          "type": "address"
        }
      ],
      "stateMutability": "nonpayable",
      "type": "constructor"
    },
    {
      "inputs": [
        {
          "internalType": "uint64",
          "name": "destinationChainSelector",
          "type": "uint64"
        }
      ],
      "name": "DestinationChainNotAllowlisted",
      "type": "error"
    },
    {
      "inputs": [
        {
          "internalType": "address",
          "name": "owner",
          "type": "address"
        },
        {
          "internalType": "address",
          "name": "target",
          "type": "address"
        },
        {
          "internalType": "uint256",
          "name": "value",
          "type": "uint256"
        }
      ],
      "name": "FailedToWithdrawEth",
      "type": "error"
    },
    {
      "inputs": [],
      "name": "InvalidReceiverAddress",
      "type": "error"
    },
    {
      "inputs": [
        {
          "internalType": "address",
          "name": "router",
          "type": "address"
        }
      ],
      "name": "InvalidRouter",
      "type": "error"
    },
    {
      "inputs": [
        {
          "internalType": "uint256",
          "name": "currentBalance",
          "type": "uint256"
        },
        {
          "internalType": "uint256",
          "name": "calculatedFees",
          "type": "uint256"
        }
      ],
      "name": "NotEnoughBalance",
      "type": "error"
    },
    {
      "inputs": [],
      "name": "NothingToWithdraw",
      "type": "error"
    },
    {
      "inputs": [
        {
          "internalType": "address",
          "name": "sender",
          "type": "address"
        }
      ],
      "name": "SenderNotAllowlisted",
      "type": "error"
    },
    {
      "inputs": [
        {
          "internalType": "uint64",
          "name": "sourceChainSelector",
          "type": "uint64"
        }
      ],
      "name": "SourceChainNotAllowlisted",
      "type": "error"
    },
    {
      "anonymous": false,
      "inputs": [
        {
          "indexed": true,
          "internalType": "address",
          "name": "agent",
          "type": "address"
        },
        {
          "indexed": false,
          "internalType": "string",
          "name": "tag",
          "type": "string"
        }
      ],
      "name": "AgentRegistered",
      "type": "event"
    },
    {
      "anonymous": false,
      "inputs": [
        {
          "indexed": true,
          "internalType": "bytes32",
          "name": "messageId",
          "type": "bytes32"
        },
        {
          "indexed": true,
          "internalType": "uint64",
          "name": "sourceChainSelector",
          "type": "uint64"
        },
        {
          "indexed": false,
          "internalType": "address",
          "name": "sender",
          "type": "address"
        },
        {
          "indexed": false,
          "internalType": "bytes",
          "name": "data",
          "type": "bytes"
        }
      ],
      "name": "MessageReceived",
      "type": "event"
    },
    {
      "anonymous": false,
      "inputs": [
        {
          "indexed": true,
          "internalType": "bytes32",
          "name": "messageId",
          "type": "bytes32"
        },
        {
          "indexed": true,
          "internalType": "uint64",
          "name": "destinationChainSelector",
          "type": "uint64"
        },
        {
          "indexed": false,
          "internalType": "address",
          "name": "receiver",
          "type": "address"
        },
        {
          "indexed": false,
          "internalType": "bytes",
          "name": "data",
          "type": "bytes"
        },
        {
          "indexed": false,
          "internalType": "address",
          "name": "feeToken",
          "type": "address"
        },
        {
          "indexed": false,
          "internalType": "uint256",
          "name": "fees",
          "type": "uint256"
        }
      ],
      "name": "MessageSent",
      "type": "event"
    },
    {
      "anonymous": false,
      "inputs": [
        {
          "indexed": true,
          "internalType": "address",
          "name": "from",
          "type": "address"
        },
        {
          "indexed": true,
          "internalType": "address",
          "name": "to",
          "type": "address"
        }
      ],
      "name": "OwnershipTransferRequested",
      "type": "event"
    },
    {
      "anonymous": false,
      "inputs": [
        {
          "indexed": true,
          "internalType": "address",
          "name": "from",
          "type": "address"
        },
        {
          "indexed": true,
          "internalType": "address",
          "name": "to",
          "type": "address"
        }
      ],
      "name": "OwnershipTransferred",
      "type": "event"
    },
    {
      "anonymous": false,
      "inputs": [
        {
          "indexed": true,
          "internalType": "address",
          "name": "seller",
          "type": "address"
        },
        {
          "indexed": false,
          "internalType": "string",
          "name": "x402Ref",
          "type": "string"
        },
        {
          "indexed": false,
          "internalType": "uint16",
          "name": "oldRep",
          "type": "uint16"
        },
        {
          "indexed": false,
          "internalType": "uint16",
          "name": "newRep",
          "type": "uint16"
        }
      ],
      "name": "ReputationUpdated",
      "type": "event"
    },
    {
      "anonymous": false,
      "inputs": [
        {
          "indexed": true,
          "internalType": "address",
          "name": "buyer",
          "type": "address"
        },
        {
          "indexed": true,
          "internalType": "address",
          "name": "seller",
          "type": "address"
        },
        {
          "indexed": false,
          "internalType": "string",
          "name": "x402Ref",
          "type": "string"
        },
        {
          "indexed": false,
          "internalType": "int8",
          "name": "rating",
          "type": "int8"
        }
      ],
      "name": "TransactionFinalized",
      "type": "event"
    },
    {
      "inputs": [],
      "name": "DEST_SELECTOR_HEDERA",
      "outputs": [
        {
          "internalType": "uint64",
          "name": "",
          "type": "uint64"
        }
      ],
      "stateMutability": "view",
      "type": "function"
    },
    {
      "inputs": [],
      "name": "acceptOwnership",
      "outputs": [],
      "stateMutability": "nonpayable",
      "type": "function"
    },
    {
      "inputs": [
        {
          "internalType": "uint64",
          "name": "_destinationChainSelector",
          "type": "uint64"
        },
        {
          "internalType": "bool",
          "name": "allowed",
          "type": "bool"
        }
      ],
      "name": "allowlistDestinationChain",
      "outputs": [],
      "stateMutability": "nonpayable",
      "type": "function"
    },
    {
      "inputs": [
        {
          "internalType": "address",
          "name": "_sender",
          "type": "address"
        },
        {
          "internalType": "bool",
          "name": "allowed",
          "type": "bool"
        }
      ],
      "name": "allowlistSender",
      "outputs": [],
      "stateMutability": "nonpayable",
      "type": "function"
    },
    {
      "inputs": [
        {
          "internalType": "uint64",
          "name": "_sourceChainSelector",
          "type": "uint64"
        },
        {
          "internalType": "bool",
          "name": "allowed",
          "type": "bool"
        }
      ],
      "name": "allowlistSourceChain",
      "outputs": [],
      "stateMutability": "nonpayable",
      "type": "function"
    },
    {
      "inputs": [
        {
          "internalType": "uint64",
          "name": "",
          "type": "uint64"
        }
      ],
      "name": "allowlistedDestinationChains",
      "outputs": [
        {
          "internalType": "bool",
          "name": "",
          "type": "bool"
        }
      ],
      "stateMutability": "view",
      "type": "function"
    },
    {
      "inputs": [
        {
          "internalType": "address",
          "name": "",
          "type": "address"
        }
      ],
      "name": "allowlistedSenders",
      "outputs": [
        {
          "internalType": "bool",
          "name": "",
          "type": "bool"
        }
      ],
      "stateMutability": "view",
      "type": "function"
    },
    {
      "inputs": [
        {
          "internalType": "uint64",
          "name": "",
          "type": "uint64"
        }
      ],
      "name": "allowlistedSourceChains",
      "outputs": [
        {
          "internalType": "bool",
          "name": "",
          "type": "bool"
        }
      ],
      "stateMutability": "view",
      "type": "function"
    },
    {
      "inputs": [
        {
          "components": [
            {
              "internalType": "bytes32",
              "name": "messageId",
              "type": "bytes32"
            },
            {
              "internalType": "uint64",
              "name": "sourceChainSelector",
              "type": "uint64"
            },
            {
              "internalType": "bytes",
              "name": "sender",
              "type": "bytes"
            },
            {
              "internalType": "bytes",
              "name": "data",
              "type": "bytes"
            },
            {
              "components": [
                {
                  "internalType": "address",
                  "name": "token",
                  "type": "address"
                },
                {
                  "internalType": "uint256",
                  "name": "amount",
                  "type": "uint256"
                }
              ],
              "internalType": "struct Client.EVMTokenAmount[]",
              "name": "destTokenAmounts",
              "type": "tuple[]"
            }
          ],
          "internalType": "struct Client.Any2EVMMessage",
          "name": "message",
          "type": "tuple"
        }
      ],
      "name": "ccipReceive",
      "outputs": [],
      "stateMutability": "nonpayable",
      "type": "function"
    },
    {
      "inputs": [],
      "name": "destinationReceiver",
      "outputs": [
        {
          "internalType": "address",
          "name": "",
          "type": "address"
        }
      ],
      "stateMutability": "view",
      "type": "function"
    },
    {
      "inputs": [],
      "name": "getLastReceivedMessageDetails",
      "outputs": [
        {
          "internalType": "bytes32",
          "name": "messageId",
          "type": "bytes32"
        },
        {
          "internalType": "bytes",
          "name": "data",
          "type": "bytes"
        }
      ],
      "stateMutability": "view",
      "type": "function"
    },
    {
      "inputs": [],
      "name": "getRouter",
      "outputs": [
        {
          "internalType": "address",
          "name": "",
          "type": "address"
        }
      ],
      "stateMutability": "view",
      "type": "function"
    },
    {
      "inputs": [],
      "name": "owner",
      "outputs": [
        {
          "internalType": "address",
          "name": "",
          "type": "address"
        }
      ],
      "stateMutability": "view",
      "type": "function"
    },
    {
      "inputs": [
        {
          "internalType": "address",
          "name": "",
          "type": "address"
        }
      ],
      "name": "reputation",
      "outputs": [
        {
          "internalType": "uint16",
          "name": "",
          "type": "uint16"
        }
      ],
      "stateMutability": "view",
      "type": "function"
    },
    {
      "inputs": [
        {
          "internalType": "address",
          "name": "agent",
          "type": "address"
        },
        {
          "internalType": "uint16",
          "name": "newRep",
          "type": "uint16"
        }
      ],
      "name": "sendDAOUpdate",
      "outputs": [],
      "stateMutability": "nonpayable",
      "type": "function"
    },
    {
      "inputs": [
        {
          "internalType": "address",
          "name": "_receiver",
          "type": "address"
        }
      ],
      "name": "setDestinationReceiver",
      "outputs": [],
      "stateMutability": "nonpayable",
      "type": "function"
    },
    {
      "inputs": [
        {
          "internalType": "bytes4",
          "name": "interfaceId",
          "type": "bytes4"
        }
      ],
      "name": "supportsInterface",
      "outputs": [
        {
          "internalType": "bool",
          "name": "",
          "type": "bool"
        }
      ],
      "stateMutability": "view",
      "type": "function"
    },
    {
      "inputs": [
        {
          "internalType": "address",
          "name": "to",
          "type": "address"
        }
      ],
      "name": "transferOwnership",
      "outputs": [],
      "stateMutability": "nonpayable",
      "type": "function"
    },
    {
      "inputs": [
        {
          "internalType": "address",
          "name": "_beneficiary",
          "type": "address"
        }
      ],
      "name": "withdraw",
      "outputs": [],
      "stateMutability": "nonpayable",
      "type": "function"
    },
    {
      "inputs": [
        {
          "internalType": "address",
          "name": "_beneficiary",
          "type": "address"
        },
        {
          "internalType": "address",
          "name": "_token",
          "type": "address"
        }
      ],
      "name": "withdrawToken",
      "outputs": [],
      "stateMutability": "nonpayable",
      "type": "function"
    },
    {
      "stateMutability": "payable",
      "type": "receive"
    }
  ],
  "bytecode": "0x60a060405234801562000010575f80fd5b506040516200229238038062002292833981016040819052620000339162000223565b33805f846001600160a01b03811662000066576040516335fdcccd60e21b81525f60048201526024015b60405180910390fd5b6001600160a01b039081166080528216620000c45760405162461bcd60e51b815260206004820152601860248201527f43616e6e6f7420736574206f776e657220746f207a65726f000000000000000060448201526064016200005d565b5f80546001600160a01b0319166001600160a01b0384811691909117909155811615620000f657620000f6816200015d565b5050600480546001600160a01b0319166001600160a01b03939093169290921790915550506703177bf287afd6675f5260076020527f272fbd7a475b1888d6cb69bd21a6eb52e6fdb093a3bb75866a03963f51ba5609805460ff1916600117905562000259565b336001600160a01b03821603620001b75760405162461bcd60e51b815260206004820152601760248201527f43616e6e6f74207472616e7366657220746f2073656c6600000000000000000060448201526064016200005d565b600180546001600160a01b0319166001600160a01b038381169182179092555f8054604051929316917fed8889f560326eb138920d842192f0eb3dd22b4f139c87a2c57538e05bae12789190a350565b80516001600160a01b03811681146200021e575f80fd5b919050565b5f806040838503121562000235575f80fd5b620002408362000207565b9150620002506020840162000207565b90509250929050565b608051612012620002805f395f818161034a015281816107120152610f6801526120125ff3fe60806040526004361061011e575f3560e01c80638fb582511161009d578063b9f7945111610062578063b9f794511461036e578063db04fa49146103b0578063e4fb4abe146103cf578063eab5b02c146103ee578063f2fde38b1461040d575f80fd5b80638fb58251146102ac57806396d3b83d146102df5780639cc90c37146102fe578063ad6e67e31461031d578063b0f479a11461033c575f80fd5b80636159ada1116100e35780636159ada1146101ed57806375c67c661461021b57806379ba50971461024957806385572ffb1461025d5780638da5cb5b1461027c575f80fd5b806301ffc9a714610129578063263596a51461015d5780633aeac4e11461017f5780634030d521146101a057806351cff8d9146101ce575f80fd5b3661012557005b5f80fd5b348015610134575f80fd5b506101486101433660046116d4565b61042c565b60405190151581526020015b60405180910390f35b348015610168575f80fd5b50610171610462565b60405161015492919061174f565b34801561018a575f80fd5b5061019e61019936600461177b565b6104fc565b005b3480156101ab575f80fd5b506101486101ba3660046117cd565b60086020525f908152604090205460ff1681565b3480156101d9575f80fd5b5061019e6101e83660046117e6565b6105a7565b3480156101f8575f80fd5b506101486102073660046117e6565b60096020525f908152604090205460ff1681565b348015610226575f80fd5b506101486102353660046117cd565b60076020525f908152604090205460ff1681565b348015610254575f80fd5b5061019e61065e565b348015610268575f80fd5b5061019e610277366004611801565b610707565b348015610287575f80fd5b505f546001600160a01b03165b6040516001600160a01b039091168152602001610154565b3480156102b7575f80fd5b506102c76703177bf287afd66781565b6040516001600160401b039091168152602001610154565b3480156102ea575f80fd5b5061019e6102f9366004611844565b610766565b348015610309575f80fd5b5061019e61031836600461187d565b610798565b348015610328575f80fd5b5061019e6103373660046117e6565b6108dd565b348015610347575f80fd5b507f0000000000000000000000000000000000000000000000000000000000000000610294565b348015610379575f80fd5b5061039d6103883660046117e6565b60036020525f908152604090205461ffff1681565b60405161ffff9091168152602001610154565b3480156103bb575f80fd5b5061019e6103ca366004611844565b610950565b3480156103da575f80fd5b50600254610294906001600160a01b031681565b3480156103f9575f80fd5b5061019e6104083660046118a9565b610982565b348015610418575f80fd5b5061019e6104273660046117e6565b6109b4565b5f6001600160e01b031982166385572ffb60e01b148061045c57506001600160e01b031982166301ffc9a760e01b145b92915050565b5f60606005546006808054610476906118c5565b80601f01602080910402602001604051908101604052809291908181526020018280546104a2906118c5565b80156104ed5780601f106104c4576101008083540402835291602001916104ed565b820191905f5260205f20905b8154815290600101906020018083116104d057829003601f168201915b50505050509050915091509091565b6105046109c5565b6040516370a0823160e01b81523060048201525f906001600160a01b038316906370a0823190602401602060405180830381865afa158015610548573d5f803e3d5ffd5b505050506040513d601f19601f8201168201806040525081019061056c91906118fd565b9050805f0361058e57604051630686827b60e51b815260040160405180910390fd5b6105a26001600160a01b0383168483610a19565b505050565b6105af6109c5565b475f8190036105d157604051630686827b60e51b815260040160405180910390fd5b5f826001600160a01b0316826040515f6040518083038185875af1925050503d805f811461061a576040519150601f19603f3d011682016040523d82523d5f602084013e61061f565b606091505b50509050806105a257604051639d11f56360e01b81523360048201526001600160a01b0384166024820152604481018390526064015b60405180910390fd5b6001546001600160a01b031633146106b15760405162461bcd60e51b815260206004820152601660248201527526bab9ba10313290383937b837b9b2b21037bbb732b960511b6044820152606401610655565b5f8054336001600160a01b0319808316821784556001805490911690556040516001600160a01b0390921692909183917f8be0079c531659141344cd1fd0a4f28419497f9722a3daafe3b4186f6b6457e091a350565b336001600160a01b037f00000000000000000000000000000000000000000000000000000000000000001614610752576040516335fdcccd60e21b8152336004820152602401610655565b61076361075e82611ac1565b610a7c565b50565b61076e6109c5565b6001600160401b03919091165f908152600760205260409020805460ff1916911515919091179055565b6107a06109c5565b6001600160a01b0382165f9081526003602052604081205461ffff1690036108015760405162461bcd60e51b81526020600482015260146024820152731859d95b9d081b9bdd081c9959da5cdd195c995960621b6044820152606401610655565b6001600160a01b0382165f818152600360209081526040808320805461ffff87811661ffff198316811790935583519485019690965291830152929092169160600160408051601f19818403018152919052600254909150610876906703177bf287afd667906001600160a01b031683610e60565b50836001600160a01b03167faa5ff63e83c1d6105cee6c0817172b0f1f8d40485f968ce3fa75548ccba9a4c283856040516108cf92919060608082525f9082015261ffff92831660208201529116604082015260800190565b60405180910390a250505050565b6108e56109c5565b6001600160a01b03811661092e5760405162461bcd60e51b815260206004820152601060248201526f34b73b30b634b2103932b1b2b4bb32b960811b6044820152606401610655565b600280546001600160a01b0319166001600160a01b0392909216919091179055565b6109586109c5565b6001600160401b03919091165f908152600860205260409020805460ff1916911515919091179055565b61098a6109c5565b6001600160a01b03919091165f908152600960205260409020805460ff1916911515919091179055565b6109bc6109c5565b61076381611187565b5f546001600160a01b03163314610a175760405162461bcd60e51b815260206004820152601660248201527527b7363c9031b0b63630b1363290313c9037bbb732b960511b6044820152606401610655565b565b6040516001600160a01b0383166024820152604481018290526105a290849063a9059cbb60e01b906064015b60408051601f198184030181529190526020810180516001600160e01b03166001600160e01b03199093169290921790915261122f565b80602001518160400151806020019051810190610a999190611b68565b6001600160401b0382165f9081526008602052604090205460ff16610adc576040516326bfad9160e21b81526001600160401b0383166004820152602401610655565b6001600160a01b0381165f9081526009602052604090205460ff16610b1f576040516338c08ef960e11b81526001600160a01b0382166004820152602401610655565b82516005556060830151600690610b369082611bce565b505f83606001515f81518110610b4e57610b4e611c8d565b602001015160f81c60f81b60f81c90505f6001856060015151610b719190611cb5565b6001600160401b03811115610b8857610b88611914565b6040519080825280601f01601f191660200182016040528015610bb2576020820181803683370190505b50905060015b856060015151811015610c245785606001518181518110610bdb57610bdb611c8d565b01602001516001600160f81b03191682610bf6600184611cb5565b81518110610c0657610c06611c8d565b60200101906001600160f81b03191690815f1a905350600101610bb8565b508160ff16600103610d0c575f805f83806020019051810190610c479190611d0a565b6001600160a01b0383165f8181526003602052604090819020805461ffff191661ffff8516179055519396509194509250907fda816ca2fc37b9eecec62ae8263008ec6be1afb38dc28bc9c7c51d7e348da9c290610ca6908590611d6a565b60405180910390a26040805160608082525f908201819052602082015261ffff83168183015290516001600160a01b038516917faa5ff63e83c1d6105cee6c0817172b0f1f8d40485f968ce3fa75548ccba9a4c2919081900360800190a2505050610df3565b8160ff16600203610df3575f805f805f85806020019051810190610d309190611d7c565b6001600160a01b038481165f818152600360205260409020805461ffff191661ffff8516179055959a509398509196509450925086167fd4bab2c24c63fd7284cc8e7d6fdc48669b6793204d5e0036929189d52b40958384610d928786611e03565b604051610da0929190611e26565b60405180910390a3836001600160a01b03167faa5ff63e83c1d6105cee6c0817172b0f1f8d40485f968ce3fa75548ccba9a4c2838584604051610de593929190611e49565b60405180910390a250505050505b84602001516001600160401b0316855f01517f4add8c8902d6fd412fed639bf652d936405bbb837c732a202153c91e89ebfaa78760400151806020019051810190610e3e9190611b68565b8860600151604051610e51929190611e76565b60405180910390a35050505050565b5f6001600160a01b038316610eaa5760405162461bcd60e51b815260206004820152601060248201526f34b73b30b634b2103932b1b2b4bb32b960811b6044820152606401610655565b6002546001600160a01b0316610ef85760405162461bcd60e51b815260206004820152601360248201527219195cdd1a5b985d1a5bdb881b9bdd081cd95d606a1b6044820152606401610655565b6001600160401b0384165f9081526007602052604090205460ff16610f3b57604051630a503cdb60e01b81526001600160401b0385166004820152602401610655565b6004545f90610f5690859085906001600160a01b0316611300565b6040516320487ded60e01b81529091507f0000000000000000000000000000000000000000000000000000000000000000905f906001600160a01b038316906320487ded90610fab908a908790600401611e99565b602060405180830381865afa158015610fc6573d5f803e3d5ffd5b505050506040513d601f19601f82011682018060405250810190610fea91906118fd565b600480546040516370a0823160e01b815230928101929092529192505f916001600160a01b0316906370a0823190602401602060405180830381865afa158015611036573d5f803e3d5ffd5b505050506040513d601f19601f8201168201806040525081019061105a91906118fd565b90508082111561108757604051634787a10360e11b81526004810182905260248101839052604401610655565b60045461109e906001600160a01b0316845f611437565b6004546110b5906001600160a01b03168484611437565b6040516396f4e9f960e01b81526001600160a01b038416906396f4e9f9906110e3908b908890600401611e99565b6020604051808303815f875af11580156110ff573d5f803e3d5ffd5b505050506040513d601f19601f8201168201806040525081019061112391906118fd565b6004546040519196506001600160401b038a169187917f3d8a9f055772202d2c3c1fddbad930d3dbe588d8692b75b84cee07194628291191611174918c918c916001600160a01b0316908990611f73565b60405180910390a3505050509392505050565b336001600160a01b038216036111df5760405162461bcd60e51b815260206004820152601760248201527f43616e6e6f74207472616e7366657220746f2073656c660000000000000000006044820152606401610655565b600180546001600160a01b0319166001600160a01b038381169182179092555f8054604051929316917fed8889f560326eb138920d842192f0eb3dd22b4f139c87a2c57538e05bae12789190a350565b5f611283826040518060400160405280602081526020017f5361666545524332303a206c6f772d6c6576656c2063616c6c206661696c6564815250856001600160a01b031661154a9092919063ffffffff16565b8051909150156105a257808060200190518101906112a19190611fa6565b6105a25760405162461bcd60e51b815260206004820152602a60248201527f5361666545524332303a204552433230206f7065726174696f6e20646964206e6044820152691bdd081cdd58d8d9595960b21b6064820152608401610655565b61133a6040518060a001604052806060815260200160608152602001606081526020015f6001600160a01b03168152602001606081525090565b6040805160a081019091526001600160a01b03851660c08201528060e0810160408051808303601f19018152918152908252602080830187905281515f80825291810183529290910191906113b0565b604080518082019091525f808252602082015281526020019060019003908161138a5790505b508152602001836001600160a01b0316815260200161142d604051806040016040528062030d408152602001600115158152506040805182516024820152602092830151151560448083019190915282518083039091018152606490910190915290810180516001600160e01b0316630181dcf160e41b17905290565b9052949350505050565b8015806114af5750604051636eb1769f60e11b81523060048201526001600160a01b03838116602483015284169063dd62ed3e90604401602060405180830381865afa158015611489573d5f803e3d5ffd5b505050506040513d601f19601f820116820180604052508101906114ad91906118fd565b155b61151a5760405162461bcd60e51b815260206004820152603660248201527f5361666545524332303a20617070726f76652066726f6d206e6f6e2d7a65726f60448201527520746f206e6f6e2d7a65726f20616c6c6f77616e636560501b6064820152608401610655565b6040516001600160a01b0383166024820152604481018290526105a290849063095ea7b360e01b90606401610a45565b606061155884845f85611560565b949350505050565b6060824710156115c15760405162461bcd60e51b815260206004820152602660248201527f416464726573733a20696e73756666696369656e742062616c616e636520666f6044820152651c8818d85b1b60d21b6064820152608401610655565b5f80866001600160a01b031685876040516115dc9190611fc1565b5f6040518083038185875af1925050503d805f8114611616576040519150601f19603f3d011682016040523d82523d5f602084013e61161b565b606091505b509150915061162c87838387611637565b979650505050505050565b606083156116a55782515f0361169e576001600160a01b0385163b61169e5760405162461bcd60e51b815260206004820152601d60248201527f416464726573733a2063616c6c20746f206e6f6e2d636f6e74726163740000006044820152606401610655565b5081611558565b61155883838151156116ba5781518083602001fd5b8060405162461bcd60e51b81526004016106559190611d6a565b5f602082840312156116e4575f80fd5b81356001600160e01b0319811681146116fb575f80fd5b9392505050565b5f5b8381101561171c578181015183820152602001611704565b50505f910152565b5f815180845261173b816020860160208601611702565b601f01601f19169290920160200192915050565b828152604060208201525f6115586040830184611724565b6001600160a01b0381168114610763575f80fd5b5f806040838503121561178c575f80fd5b823561179781611767565b915060208301356117a781611767565b809150509250929050565b80356001600160401b03811681146117c8575f80fd5b919050565b5f602082840312156117dd575f80fd5b6116fb826117b2565b5f602082840312156117f6575f80fd5b81356116fb81611767565b5f60208284031215611811575f80fd5b81356001600160401b03811115611826575f80fd5b820160a081850312156116fb575f80fd5b8015158114610763575f80fd5b5f8060408385031215611855575f80fd5b61185e836117b2565b915060208301356117a781611837565b61ffff81168114610763575f80fd5b5f806040838503121561188e575f80fd5b823561189981611767565b915060208301356117a78161186e565b5f80604083850312156118ba575f80fd5b823561185e81611767565b600181811c908216806118d957607f821691505b6020821081036118f757634e487b7160e01b5f52602260045260245ffd5b50919050565b5f6020828403121561190d575f80fd5b5051919050565b634e487b7160e01b5f52604160045260245ffd5b604080519081016001600160401b038111828210171561194a5761194a611914565b60405290565b60405160a081016001600160401b038111828210171561194a5761194a611914565b604051601f8201601f191681016001600160401b038111828210171561199a5761199a611914565b604052919050565b5f6001600160401b038211156119ba576119ba611914565b50601f01601f191660200190565b5f82601f8301126119d7575f80fd5b81356119ea6119e5826119a2565b611972565b8181528460208386010111156119fe575f80fd5b816020850160208301375f918101602001919091529392505050565b5f82601f830112611a29575f80fd5b813560206001600160401b03821115611a4457611a44611914565b611a52818360051b01611972565b82815260069290921b84018101918181019086841115611a70575f80fd5b8286015b84811015611ab65760408189031215611a8b575f80fd5b611a93611928565b8135611a9e81611767565b81528185013585820152835291830191604001611a74565b509695505050505050565b5f60a08236031215611ad1575f80fd5b611ad9611950565b82358152611ae9602084016117b2565b602082015260408301356001600160401b0380821115611b07575f80fd5b611b13368387016119c8565b60408401526060850135915080821115611b2b575f80fd5b611b37368387016119c8565b60608401526080850135915080821115611b4f575f80fd5b50611b5c36828601611a1a565b60808301525092915050565b5f60208284031215611b78575f80fd5b81516116fb81611767565b601f8211156105a257805f5260205f20601f840160051c81016020851015611ba85750805b601f840160051c820191505b81811015611bc7575f8155600101611bb4565b5050505050565b81516001600160401b03811115611be757611be7611914565b611bfb81611bf584546118c5565b84611b83565b602080601f831160018114611c2e575f8415611c175750858301515b5f19600386901b1c1916600185901b178555611c85565b5f85815260208120601f198616915b82811015611c5c57888601518255948401946001909101908401611c3d565b5085821015611c7957878501515f19600388901b60f8161c191681555b505060018460011b0185555b505050505050565b634e487b7160e01b5f52603260045260245ffd5b634e487b7160e01b5f52601160045260245ffd5b8181038181111561045c5761045c611ca1565b5f82601f830112611cd7575f80fd5b8151611ce56119e5826119a2565b818152846020838601011115611cf9575f80fd5b611558826020830160208701611702565b5f805f60608486031215611d1c575f80fd5b8351611d2781611767565b60208501519093506001600160401b03811115611d42575f80fd5b611d4e86828701611cc8565b9250506040840151611d5f8161186e565b809150509250925092565b602081525f6116fb6020830184611724565b5f805f805f60a08688031215611d90575f80fd5b8551611d9b81611767565b6020870151909550611dac81611767565b6040870151909450611dbd8161186e565b60608701519093506001600160401b03811115611dd8575f80fd5b611de488828901611cc8565b9250506080860151611df58161186e565b809150509295509295909350565b600182810b9082900b03617fff198112617fff8213171561045c5761045c611ca1565b604081525f611e386040830185611724565b9050825f0b60208301529392505050565b606081525f611e5b6060830186611724565b61ffff94851660208401529290931660409091015292915050565b6001600160a01b03831681526040602082018190525f9061155890830184611724565b5f60406001600160401b03851683526020604081850152845160a06040860152611ec660e0860182611724565b905081860151603f1980878403016060880152611ee38383611724565b6040890151888203830160808a0152805180835290860194505f9350908501905b80841015611f3657845180516001600160a01b0316835286015186830152938501936001939093019290860190611f04565b5060608901516001600160a01b031660a08901526080890151888203830160c08a01529550611f658187611724565b9a9950505050505050505050565b5f60018060a01b03808716835260806020840152611f946080840187611724565b94166040830152506060015292915050565b5f60208284031215611fb6575f80fd5b81516116fb81611837565b5f8251611fd2818460208701611702565b919091019291505056fea264697066735822122068321cd4ae5e6ef8193a5f43eba52d42f6c3eae7e8123a249011ec88f42adff564736f6c63430008180033",
  "linkReferences": {},
  "deployedLinkReferences": {}
}