{
  "_format": "hh-sol-artifact-1",
  "contractName": "ReputationDataGenerator",
  "sourceName": "contracts/Demo/ReputationDataGenerator.sol",
  "abi": [
    {
      "inputs": [],
      "stateMutability": "nonpayable",
      "type": "constructor"
    },
    {
      "anonymous": false,
      "inputs": [
        {
          "indexed": true,
          "internalType": "address",
          "name": "agent",
          "type": "address"
        },
        {
          "indexed": false,
          "internalType": "string",
          "name": "tag",
          "type": "string"
        }
      ],
      "name": "AgentRegistered",
      "type": "event"
    },
    {
      "anonymous": false,
      "inputs": [
        {
          "indexed": true,
          "internalType": "bytes32",
          "name": "messageId",
          "type": "bytes32"
        },
        {
          "indexed": true,
          "internalType": "uint64",
          "name": "sourceChainSelector",
          "type": "uint64"
        },
        {
          "indexed": false,
          "internalType": "address",
          "name": "sender",
          "type": "address"
        },
        {
          "indexed": false,
          "internalType": "bytes",
          "name": "data",
          "type": "bytes"
        }
      ],
      "name": "MessageReceived",
      "type": "event"
    },
    {
      "anonymous": false,
      "inputs": [
        {
          "indexed": true,
          "internalType": "address",
          "name": "seller",
          "type": "address"
        },
        {
          "indexed": false,
          "internalType": "string",
          "name": "x402Ref",
          "type": "string"
        },
        {
          "indexed": false,
          "internalType": "uint16",
          "name": "oldRep",
          "type": "uint16"
        },
        {
          "indexed": false,
          "internalType": "uint16",
          "name": "newRep",
          "type": "uint16"
        }
      ],
      "name": "ReputationUpdated",
      "type": "event"
    },
    {
      "anonymous": false,
      "inputs": [
        {
          "indexed": true,
          "internalType": "address",
          "name": "buyer",
          "type": "address"
        },
        {
          "indexed": true,
          "internalType": "address",
          "name": "seller",
          "type": "address"
        },
        {
          "indexed": false,
          "internalType": "string",
          "name": "x402Ref",
          "type": "string"
        },
        {
          "indexed": false,
          "internalType": "int8",
          "name": "rating",
          "type": "int8"
        }
      ],
      "name": "TransactionFinalized",
      "type": "event"
    },
    {
      "inputs": [],
      "name": "agentCount",
      "outputs": [
        {
          "internalType": "uint256",
          "name": "",
          "type": "uint256"
        }
      ],
      "stateMutability": "view",
      "type": "function"
    },
    {
      "inputs": [],
      "name": "generateAIAgents",
      "outputs": [],
      "stateMutability": "nonpayable",
      "type": "function"
    },
    {
      "inputs": [],
      "name": "generateAITransactions",
      "outputs": [],
      "stateMutability": "nonpayable",
      "type": "function"
    },
    {
      "inputs": [],
      "name": "getDemoStats",
      "outputs": [
        {
          "internalType": "uint256",
          "name": "agents",
          "type": "uint256"
        },
        {
          "internalType": "uint256",
          "name": "transactions",
          "type": "uint256"
        }
      ],
      "stateMutability": "view",
      "type": "function"
    },
    {
      "inputs": [],
      "name": "owner",
      "outputs": [
        {
          "internalType": "address",
          "name": "",
          "type": "address"
        }
      ],
      "stateMutability": "view",
      "type": "function"
    },
    {
      "inputs": [],
      "name": "transactionCount",
      "outputs": [
        {
          "internalType": "uint256",
          "name": "",
          "type": "uint256"
        }
      ],
      "stateMutability": "view",
      "type": "function"
    }
  ],
  "bytecode": "0x608060405234801561000f575f80fd5b505f80546001600160a01b03191633179055610eb38061002e5f395ff3fe608060405234801561000f575f80fd5b5060043610610060575f3560e01c80633203998a146100645780638da5cb5b14610084578063b77bf600146100ae578063b7dc1284146100c5578063c63894a8146100ce578063eb75de8f146100d8575b5f80fd5b600154600254604080519283526020830191909152015b60405180910390f35b5f54610096906001600160a01b031681565b6040516001600160a01b03909116815260200161007b565b6100b760025481565b60405190815260200161007b565b6100b760015481565b6100d66100e0565b005b6100d6610801565b5f546001600160a01b0316331461012a5760405162461bcd60e51b81526020600482015260096024820152682737ba1037bbb732b960b91b60448201526064015b60405180910390fd5b5f6040518060a001604052807311111111111111111111111111111111111111116001600160a01b03166001600160a01b031681526020017322222222222222222222222222222222222222226001600160a01b03166001600160a01b031681526020017333333333333333333333333333333333333333336001600160a01b03166001600160a01b031681526020017344444444444444444444444444444444444444446001600160a01b03166001600160a01b031681526020017355555555555555555555555555555555555555556001600160a01b03166001600160a01b031681525090505f604051806060016040528060016001600160a01b03166001600160a01b0316815260200160026001600160a01b03166001600160a01b0316815260200160036001600160a01b03166001600160a01b031681525090505f6040518061014001604052806040518060400160405280600c81526020016b41495f54524144455f30303160a01b81525081526020016040518060400160405280600d81526020016c2ca4a2a6222fa7a82a2f98181960991b81525081526020016040518060400160405280600c81526020016b4e46545f505245445f30303360a01b81525081526020016040518060400160405280600d81526020016c1054909255149051d157cc0c0d609a1b81525081526020016040518060400160405280600f81526020016e5249534b5f4153534553535f30303560881b81525081526020016040518060400160405280600c81526020016b20a4afaa2920a222af98181b60a11b81525081526020016040518060400160405280600d81526020016c444546495f535741505f30303760981b81525081526020016040518060400160405280600f81526020016e086a49ea6a6be869082929cbe60607608b1b81525081526020016040518060400160405280600e81526020016d50524544494354494f4e5f30303960901b81525081526020016040518060400160405280601081526020016f04f5054494d495a4154494f4e5f3031360841b81525081525090505f60405180610140016040528060045f0b5f0b815260200160055f0b815260200160035f0b815260200160055f0b815260200160045f0b815260200160025f0b815260200160055f0b815260200160045f0b815260200160035f0b815260200160055f0b81525090505f604051806101400160405280605561ffff1661ffff168152602001605c61ffff168152602001604e61ffff168152602001605f61ffff168152602001605861ffff168152602001605761ffff168152602001606161ffff168152602001605161ffff168152602001606261ffff168152602001605c61ffff1681525090505f5b600a8110156107f9575f86610529600584610c4f565b6005811061053957610539610c6e565b602002015190505f8661054d600385610c4f565b6003811061055d5761055d610c6e565b602002015190505f8484600a811061057757610577610c6e565b602002015190508060048786600a811061059357610593610c6e565b60200201515f0b126105b1576105aa600282610c96565b90506105f7565b60038786600a81106105c5576105c5610c6e565b60200201515f0b126105dc576105aa600182610c96565b60018161ffff1611156105f7576105f4600182610cb8565b90505b836001600160a01b0316836001600160a01b03167fd4bab2c24c63fd7284cc8e7d6fdc48669b6793204d5e0036929189d52b4095838a88600a811061063e5761063e610c6e565b60200201518a89600a811061065557610655610c6e565b6020020151604051610668929190610d20565b60405180910390a3836001600160a01b03167faa5ff63e83c1d6105cee6c0817172b0f1f8d40485f968ce3fa75548ccba9a4c28987600a81106106ad576106ad610c6e565b602002015184846040516106c393929190610d43565b60405180910390a260028054905f6106da83610d70565b90915550506040516bffffffffffffffffffffffff19606086811b8216602084015285901b166034820152604881018690524260688201525f906088016040516020818303038152906040528051906020012090505f60028587868d8b600a811061074757610747610c6e565b602002015187604051602001610761959493929190610d88565b60408051601f198184030181529082905261077f9291602001610dd4565b60405160208183030381529060405290506703177bf287afd667827f4add8c8902d6fd412fed639bf652d936405bbb837c732a202153c91e89ebfaa7732b62128e7ad12d9c437f89c1be66b00e9d000d94846040516107df929190610e02565b60405180910390a350506001909401935061051392505050565b505050505050565b5f546001600160a01b031633146108465760405162461bcd60e51b81526020600482015260096024820152682737ba1037bbb732b960b91b6044820152606401610121565b6040805160a08082018352731111111111111111111111111111111111111111825273222222222222222222222222222222222222222260208084019190915273333333333333333333333333333333333333333383850152734444444444444444444444444444444444444444606080850191909152735555555555555555555555555555555555555555608080860191909152855160e081018752600f8186019081526e11d4150b551c98591a5b99cb509bdd608a1b60c083015281528651808801885260148152732232a33496acb4b2b63216a7b83a34b6b4bd32b960611b818601528185015286518088018852601381527227232a16a83934b1b296a83932b234b1ba37b960691b818601528188015286518088018852601581527443726f73732d436861696e2d41726269747261676560581b81860152818401528651808801885260128152715269736b2d4173736573736d656e742d414960701b81860152818301528651948501875260558552605c93850193909352604e95840195909552605f908301526058938201939093529091905f5b6005811015610c49578381600581106109fb576109fb610c6e565b60200201516001600160a01b03167fda816ca2fc37b9eecec62ae8263008ec6be1afb38dc28bc9c7c51d7e348da9c2848360058110610a3c57610a3c610c6e565b6020020151604051610a4e9190610e2d565b60405180910390a2838160058110610a6857610a68610c6e565b60200201516001600160a01b03167faa5ff63e83c1d6105cee6c0817172b0f1f8d40485f968ce3fa75548ccba9a4c25f848460058110610aaa57610aaa610c6e565b6020020151604051610ada92919060608082525f9082015261ffff92831660208201529116604082015260800190565b60405180910390a260018054905f610af183610d70565b91905055505f848260058110610b0957610b09610c6e565b60200201514283604051602001610b479392919060609390931b6bffffffffffffffffffffffff191683526014830191909152603482015260540190565b6040516020818303038152906040528051906020012090505f6001868460058110610b7457610b74610c6e565b6020020151868560058110610b8b57610b8b610c6e565b6020020151868660058110610ba257610ba2610c6e565b6020020151604051602001610bb993929190610e46565b60408051601f1981840301815290829052610bd79291602001610dd4565b60405160208183030381529060405290506703177bf287afd667827f4add8c8902d6fd412fed639bf652d936405bbb837c732a202153c91e89ebfaa7732b62128e7ad12d9c437f89c1be66b00e9d000d9484604051610c37929190610e02565b60405180910390a350506001016109e0565b50505050565b5f82610c6957634e487b7160e01b5f52601260045260245ffd5b500690565b634e487b7160e01b5f52603260045260245ffd5b634e487b7160e01b5f52601160045260245ffd5b61ffff818116838216019080821115610cb157610cb1610c82565b5092915050565b61ffff828116828216039080821115610cb157610cb1610c82565b5f5b83811015610ced578181015183820152602001610cd5565b50505f910152565b5f8151808452610d0c816020860160208601610cd3565b601f01601f19169290920160200192915050565b604081525f610d326040830185610cf5565b9050825f0b60208301529392505050565b606081525f610d556060830186610cf5565b61ffff94851660208401529290931660409091015292915050565b5f60018201610d8157610d81610c82565b5060010190565b6001600160a01b0386811682528516602082015261ffff848116604083015260a0606083018190525f9190610dbf90840186610cf5565b91508084166080840152509695505050505050565b60ff60f81b8360f81b1681525f8251610df4816001850160208701610cd3565b919091016001019392505050565b6001600160a01b03831681526040602082018190525f90610e2590830184610cf5565b949350505050565b602081525f610e3f6020830184610cf5565b9392505050565b6001600160a01b03841681526060602082018190525f90610e6990830185610cf5565b905061ffff8316604083015294935050505056fea26469706673582212209e8dc8975165d445273a12bd331fdebcdd2ccc355487c2dc13d1a636fabc9bb364736f6c63430008180033",
  "linkReferences": {},
  "deployedLinkReferences": {}
}